{
  "contractName": "ToDoList",
  "abi": [
    {
      "constant": true,
      "inputs": [],
      "name": "TaskCount",
      "outputs": [
        {
          "name": "",
          "type": "uint256"
        }
      ],
      "payable": false,
      "stateMutability": "view",
      "type": "function",
      "signature": "0xbbba4865"
    },
    {
      "constant": true,
      "inputs": [
        {
          "name": "",
          "type": "uint256"
        }
      ],
      "name": "Tasks",
      "outputs": [
        {
          "name": "id",
          "type": "uint256"
        },
        {
          "name": "title",
          "type": "string"
        },
        {
          "name": "content",
          "type": "string"
        },
        {
          "name": "isCompleted",
          "type": "bool"
        }
      ],
      "payable": false,
      "stateMutability": "view",
      "type": "function",
      "signature": "0xf4b2a46e"
    },
    {
      "inputs": [],
      "payable": false,
      "stateMutability": "nonpayable",
      "type": "constructor",
      "signature": "constructor"
    },
    {
      "constant": false,
      "inputs": [
        {
          "name": "_title",
          "type": "string"
        },
        {
          "name": "_content",
          "type": "string"
        }
      ],
      "name": "createTask",
      "outputs": [],
      "payable": false,
      "stateMutability": "nonpayable",
      "type": "function",
      "signature": "0x292a4585"
    }
  ],
  "bytecode": "0x60806040526000805534801561001457600080fd5b506100bf6040805190810160405280600781526020017f576f726b4f757400000000000000000000000000000000000000000000000000815250606060405190810160405280602381526020017f46756c6c20626f647920776f726b6f75742066726f6d2036504d20746f20382081526020017f504d2e00000000000000000000000000000000000000000000000000000000008152506100c4640100000000026401000000009004565b6101ef565b60008054600190810180835560408051608081018252828152602080820188815282840188905260608301879052938652848152919094208451815591518051929361011893908501929190910190610154565b5060408201518051610134916002840191602090910190610154565b50606091909101516003909101805460ff19169115159190911790555050565b828054600181600116156101000203166002900490600052602060002090601f016020900481019282601f1061019557805160ff19168380011785556101c2565b828001600101855582156101c2579182015b828111156101c25782518255916020019190600101906101a7565b506101ce9291506101d2565b5090565b6101ec91905b808211156101ce57600081556001016101d8565b90565b610576806101fe6000396000f3fe6080604052600436106100565763ffffffff7c0100000000000000000000000000000000000000000000000000000000600035041663292a4585811461005b578063bbba486514610197578063f4b2a46e146101be575b600080fd5b34801561006757600080fd5b506101956004803603604081101561007e57600080fd5b81019060208101813564010000000081111561009957600080fd5b8201836020820111156100ab57600080fd5b803590602001918460018302840111640100000000831117156100cd57600080fd5b91908080601f016020809104026020016040519081016040528093929190818152602001838380828437600092019190915250929594936020810193503591505064010000000081111561012057600080fd5b82018360208201111561013257600080fd5b8035906020019184600183028401116401000000008311171561015457600080fd5b91908080601f0160208091040260200160405190810160405280939291908181526020018383808284376000920191909152509295506102d8945050505050565b005b3480156101a357600080fd5b506101ac610368565b60408051918252519081900360200190f35b3480156101ca57600080fd5b506101e8600480360360208110156101e157600080fd5b503561036e565b60405180858152602001806020018060200184151515158152602001838103835286818151815260200191508051906020019080838360005b83811015610239578181015183820152602001610221565b50505050905090810190601f1680156102665780820380516001836020036101000a031916815260200191505b50838103825285518152855160209182019187019080838360005b83811015610299578181015183820152602001610281565b50505050905090810190601f1680156102c65780820380516001836020036101000a031916815260200191505b50965050505050505060405180910390f35b60008054600190810180835560408051608081018252828152602080820188815282840188905260608301879052938652848152919094208451815591518051929361032c939085019291909101906104af565b50604082015180516103489160028401916020909101906104af565b50606091909101516003909101805460ff19169115159190911790555050565b60005481565b600160208181526000928352604092839020805481840180548651600296821615610100026000190190911695909504601f8101859004850286018501909652858552909491939290919083018282801561040a5780601f106103df5761010080835404028352916020019161040a565b820191906000526020600020905b8154815290600101906020018083116103ed57829003601f168201915b50505060028085018054604080516020601f600019610100600187161502019094169590950492830185900485028101850190915281815295969594509092509083018282801561049c5780601f106104715761010080835404028352916020019161049c565b820191906000526020600020905b81548152906001019060200180831161047f57829003601f168201915b5050506003909301549192505060ff1684565b828054600181600116156101000203166002900490600052602060002090601f016020900481019282601f106104f057805160ff191683800117855561051d565b8280016001018555821561051d579182015b8281111561051d578251825591602001919060010190610502565b5061052992915061052d565b5090565b61054791905b808211156105295760008155600101610533565b9056fea165627a7a72305820e3643bb2e9c0bda2b3607619c486d98ddf38f51a26b72b8e2e009a63f8c7c1160029",
  "source": "pragma solidity ^0.5.0;\r\n\r\n\r\ncontract ToDoList {\r\n    uint public TaskCount = 0;\r\n    struct Task{\r\n        uint id;\r\n        string title;\r\n        string content;\r\n        bool isCompleted;\r\n    }\r\n    mapping(uint => Task) public Tasks;\r\n\r\n    constructor() public {\r\n        createTask(\"WorkOut\",\"Full body workout from 6PM to 8 PM.\");\r\n    }\r\n\r\n    function createTask(string memory _title, string memory _content) public {\r\n        TaskCount ++;\r\n        Tasks[TaskCount] = Task(TaskCount, _title, _content, false);\r\n    }\r\n}",
  "sourcePath": "C:/Users/Ahmed/Desktop/GUC/eth-todolist-app/contracts/ToDooList.sol",
  "compiler": {
    "name": "solc",
    "version": "0.5.0+commit.1d4f565a.Emscripten.clang"
  },
  "schemaVersion": "3.0.1",
  "updatedAt": "2020-03-26T18:55:33.915Z",
  "devdoc": {
    "methods": {}
  },
  "userdoc": {
    "methods": {}
  }
}